{
  "_format": "hh-sol-artifact-1",
  "contractName": "StakingPool",
  "sourceName": "contracts/StakingPool.sol",
  "abi": [
    {
      "inputs": [],
      "name": "EnforcedPause",
      "type": "error"
    },
    {
      "inputs": [],
      "name": "ExpectedPause",
      "type": "error"
    },
    {
      "inputs": [],
      "name": "ReentrancyGuardReentrantCall",
      "type": "error"
    },
    {
      "inputs": [
        {
          "internalType": "address",
          "name": "token",
          "type": "address"
        }
      ],
      "name": "SafeERC20FailedOperation",
      "type": "error"
    },
    {
      "anonymous": false,
      "inputs": [
        {
          "indexed": true,
          "internalType": "address",
          "name": "creator",
          "type": "address"
        },
        {
          "indexed": false,
          "internalType": "uint256",
          "name": "amount",
          "type": "uint256"
        }
      ],
      "name": "CreatorWithdraw",
      "type": "event"
    },
    {
      "anonymous": false,
      "inputs": [
        {
          "indexed": true,
          "internalType": "address",
          "name": "previousOwner",
          "type": "address"
        },
        {
          "indexed": true,
          "internalType": "address",
          "name": "newOwner",
          "type": "address"
        }
      ],
      "name": "OwnershipTransferred",
      "type": "event"
    },
    {
      "anonymous": false,
      "inputs": [
        {
          "indexed": false,
          "internalType": "address",
          "name": "account",
          "type": "address"
        }
      ],
      "name": "Paused",
      "type": "event"
    },
    {
      "anonymous": false,
      "inputs": [
        {
          "indexed": true,
          "internalType": "address",
          "name": "creator",
          "type": "address"
        },
        {
          "indexed": true,
          "internalType": "address",
          "name": "nftCollection",
          "type": "address"
        },
        {
          "indexed": true,
          "internalType": "address",
          "name": "rewardToken",
          "type": "address"
        },
        {
          "indexed": false,
          "internalType": "uint256",
          "name": "totalRewards",
          "type": "uint256"
        },
        {
          "indexed": false,
          "internalType": "uint256",
          "name": "lockPeriodDays",
          "type": "uint256"
        }
      ],
      "name": "PoolInitialized",
      "type": "event"
    },
    {
      "anonymous": false,
      "inputs": [
        {
          "indexed": true,
          "internalType": "address",
          "name": "user",
          "type": "address"
        },
        {
          "indexed": false,
          "internalType": "uint256",
          "name": "amount",
          "type": "uint256"
        }
      ],
      "name": "RewardsClaimed",
      "type": "event"
    },
    {
      "anonymous": false,
      "inputs": [
        {
          "indexed": true,
          "internalType": "address",
          "name": "user",
          "type": "address"
        },
        {
          "indexed": false,
          "internalType": "uint256",
          "name": "amount",
          "type": "uint256"
        }
      ],
      "name": "RewardsForfeited",
      "type": "event"
    },
    {
      "anonymous": false,
      "inputs": [
        {
          "indexed": true,
          "internalType": "address",
          "name": "user",
          "type": "address"
        },
        {
          "indexed": false,
          "internalType": "uint256[]",
          "name": "tokenIds",
          "type": "uint256[]"
        }
      ],
      "name": "Staked",
      "type": "event"
    },
    {
      "anonymous": false,
      "inputs": [
        {
          "indexed": false,
          "internalType": "address",
          "name": "account",
          "type": "address"
        }
      ],
      "name": "Unpaused",
      "type": "event"
    },
    {
      "anonymous": false,
      "inputs": [
        {
          "indexed": true,
          "internalType": "address",
          "name": "user",
          "type": "address"
        },
        {
          "indexed": false,
          "internalType": "uint256[]",
          "name": "tokenIds",
          "type": "uint256[]"
        },
        {
          "indexed": false,
          "internalType": "bool",
          "name": "earlyWithdrawal",
          "type": "bool"
        }
      ],
      "name": "Unstaked",
      "type": "event"
    },
    {
      "inputs": [],
      "name": "POOL_DURATION",
      "outputs": [
        {
          "internalType": "uint256",
          "name": "",
          "type": "uint256"
        }
      ],
      "stateMutability": "view",
      "type": "function"
    },
    {
      "inputs": [],
      "name": "claimRewards",
      "outputs": [],
      "stateMutability": "nonpayable",
      "type": "function"
    },
    {
      "inputs": [],
      "name": "creatorWithdraw",
      "outputs": [],
      "stateMutability": "nonpayable",
      "type": "function"
    },
    {
      "inputs": [
        {
          "internalType": "address",
          "name": "account",
          "type": "address"
        }
      ],
      "name": "earned",
      "outputs": [
        {
          "internalType": "uint256",
          "name": "",
          "type": "uint256"
        }
      ],
      "stateMutability": "view",
      "type": "function"
    },
    {
      "inputs": [],
      "name": "endTime",
      "outputs": [
        {
          "internalType": "uint256",
          "name": "",
          "type": "uint256"
        }
      ],
      "stateMutability": "view",
      "type": "function"
    },
    {
      "inputs": [],
      "name": "factory",
      "outputs": [
        {
          "internalType": "address",
          "name": "",
          "type": "address"
        }
      ],
      "stateMutability": "view",
      "type": "function"
    },
    {
      "inputs": [],
      "name": "getCurrentAPR",
      "outputs": [
        {
          "internalType": "uint256",
          "name": "",
          "type": "uint256"
        }
      ],
      "stateMutability": "view",
      "type": "function"
    },
    {
      "inputs": [],
      "name": "getPoolInfo",
      "outputs": [
        {
          "internalType": "address",
          "name": "_nftCollection",
          "type": "address"
        },
        {
          "internalType": "address",
          "name": "_rewardToken",
          "type": "address"
        },
        {
          "internalType": "uint256",
          "name": "_totalRewards",
          "type": "uint256"
        },
        {
          "internalType": "uint256",
          "name": "_totalStaked",
          "type": "uint256"
        },
        {
          "internalType": "uint256",
          "name": "_rewardRate",
          "type": "uint256"
        },
        {
          "internalType": "uint256",
          "name": "_startTime",
          "type": "uint256"
        },
        {
          "internalType": "uint256",
          "name": "_endTime",
          "type": "uint256"
        },
        {
          "internalType": "uint256",
          "name": "_remainingRewards",
          "type": "uint256"
        },
        {
          "internalType": "address",
          "name": "_owner",
          "type": "address"
        },
        {
          "internalType": "uint256",
          "name": "_lockPeriod",
          "type": "uint256"
        }
      ],
      "stateMutability": "view",
      "type": "function"
    },
    {
      "inputs": [
        {
          "internalType": "address",
          "name": "user",
          "type": "address"
        }
      ],
      "name": "getStakedTokenIds",
      "outputs": [
        {
          "internalType": "uint256[]",
          "name": "",
          "type": "uint256[]"
        }
      ],
      "stateMutability": "view",
      "type": "function"
    },
    {
      "inputs": [
        {
          "internalType": "address",
          "name": "user",
          "type": "address"
        }
      ],
      "name": "getStakerInfo",
      "outputs": [
        {
          "internalType": "uint256",
          "name": "stakedCount",
          "type": "uint256"
        },
        {
          "internalType": "uint256",
          "name": "pendingRewards",
          "type": "uint256"
        },
        {
          "internalType": "uint256[]",
          "name": "tokenIds",
          "type": "uint256[]"
        },
        {
          "internalType": "bool",
          "name": "isLocked",
          "type": "bool"
        },
        {
          "internalType": "uint256",
          "name": "lockEndsAt",
          "type": "uint256"
        }
      ],
      "stateMutability": "view",
      "type": "function"
    },
    {
      "inputs": [
        {
          "internalType": "address",
          "name": "_creator",
          "type": "address"
        },
        {
          "internalType": "address",
          "name": "_nft",
          "type": "address"
        },
        {
          "internalType": "address",
          "name": "_rewardToken",
          "type": "address"
        },
        {
          "internalType": "uint256",
          "name": "_totalRewards",
          "type": "uint256"
        },
        {
          "internalType": "uint256",
          "name": "_lockPeriodDays",
          "type": "uint256"
        }
      ],
      "name": "initialize",
      "outputs": [],
      "stateMutability": "nonpayable",
      "type": "function"
    },
    {
      "inputs": [],
      "name": "initialized",
      "outputs": [
        {
          "internalType": "bool",
          "name": "",
          "type": "bool"
        }
      ],
      "stateMutability": "view",
      "type": "function"
    },
    {
      "inputs": [],
      "name": "isExpired",
      "outputs": [
        {
          "internalType": "bool",
          "name": "",
          "type": "bool"
        }
      ],
      "stateMutability": "view",
      "type": "function"
    },
    {
      "inputs": [
        {
          "internalType": "address",
          "name": "user",
          "type": "address"
        }
      ],
      "name": "isUserLocked",
      "outputs": [
        {
          "internalType": "bool",
          "name": "",
          "type": "bool"
        }
      ],
      "stateMutability": "view",
      "type": "function"
    },
    {
      "inputs": [],
      "name": "lastTimeRewardApplicable",
      "outputs": [
        {
          "internalType": "uint256",
          "name": "",
          "type": "uint256"
        }
      ],
      "stateMutability": "view",
      "type": "function"
    },
    {
      "inputs": [],
      "name": "lastUpdateTime",
      "outputs": [
        {
          "internalType": "uint256",
          "name": "",
          "type": "uint256"
        }
      ],
      "stateMutability": "view",
      "type": "function"
    },
    {
      "inputs": [],
      "name": "lockPeriod",
      "outputs": [
        {
          "internalType": "uint256",
          "name": "",
          "type": "uint256"
        }
      ],
      "stateMutability": "view",
      "type": "function"
    },
    {
      "inputs": [],
      "name": "nftCollection",
      "outputs": [
        {
          "internalType": "contract IERC721",
          "name": "",
          "type": "address"
        }
      ],
      "stateMutability": "view",
      "type": "function"
    },
    {
      "inputs": [
        {
          "internalType": "address",
          "name": "",
          "type": "address"
        },
        {
          "internalType": "address",
          "name": "",
          "type": "address"
        },
        {
          "internalType": "uint256",
          "name": "",
          "type": "uint256"
        },
        {
          "internalType": "bytes",
          "name": "",
          "type": "bytes"
        }
      ],
      "name": "onERC721Received",
      "outputs": [
        {
          "internalType": "bytes4",
          "name": "",
          "type": "bytes4"
        }
      ],
      "stateMutability": "pure",
      "type": "function"
    },
    {
      "inputs": [],
      "name": "owner",
      "outputs": [
        {
          "internalType": "address",
          "name": "",
          "type": "address"
        }
      ],
      "stateMutability": "view",
      "type": "function"
    },
    {
      "inputs": [],
      "name": "pause",
      "outputs": [],
      "stateMutability": "nonpayable",
      "type": "function"
    },
    {
      "inputs": [],
      "name": "paused",
      "outputs": [
        {
          "internalType": "bool",
          "name": "",
          "type": "bool"
        }
      ],
      "stateMutability": "view",
      "type": "function"
    },
    {
      "inputs": [],
      "name": "renounceOwnership",
      "outputs": [],
      "stateMutability": "nonpayable",
      "type": "function"
    },
    {
      "inputs": [],
      "name": "rewardPerToken",
      "outputs": [
        {
          "internalType": "uint256",
          "name": "",
          "type": "uint256"
        }
      ],
      "stateMutability": "view",
      "type": "function"
    },
    {
      "inputs": [],
      "name": "rewardPerTokenStored",
      "outputs": [
        {
          "internalType": "uint256",
          "name": "",
          "type": "uint256"
        }
      ],
      "stateMutability": "view",
      "type": "function"
    },
    {
      "inputs": [],
      "name": "rewardRate",
      "outputs": [
        {
          "internalType": "uint256",
          "name": "",
          "type": "uint256"
        }
      ],
      "stateMutability": "view",
      "type": "function"
    },
    {
      "inputs": [],
      "name": "rewardToken",
      "outputs": [
        {
          "internalType": "contract IERC20",
          "name": "",
          "type": "address"
        }
      ],
      "stateMutability": "view",
      "type": "function"
    },
    {
      "inputs": [
        {
          "internalType": "address",
          "name": "",
          "type": "address"
        }
      ],
      "name": "rewards",
      "outputs": [
        {
          "internalType": "uint256",
          "name": "",
          "type": "uint256"
        }
      ],
      "stateMutability": "view",
      "type": "function"
    },
    {
      "inputs": [
        {
          "internalType": "uint256[]",
          "name": "tokenIds",
          "type": "uint256[]"
        }
      ],
      "name": "stake",
      "outputs": [],
      "stateMutability": "nonpayable",
      "type": "function"
    },
    {
      "inputs": [
        {
          "internalType": "address",
          "name": "",
          "type": "address"
        }
      ],
      "name": "stakeTimestamp",
      "outputs": [
        {
          "internalType": "uint256",
          "name": "",
          "type": "uint256"
        }
      ],
      "stateMutability": "view",
      "type": "function"
    },
    {
      "inputs": [
        {
          "internalType": "address",
          "name": "",
          "type": "address"
        }
      ],
      "name": "stakedBalance",
      "outputs": [
        {
          "internalType": "uint256",
          "name": "",
          "type": "uint256"
        }
      ],
      "stateMutability": "view",
      "type": "function"
    },
    {
      "inputs": [],
      "name": "startTime",
      "outputs": [
        {
          "internalType": "uint256",
          "name": "",
          "type": "uint256"
        }
      ],
      "stateMutability": "view",
      "type": "function"
    },
    {
      "inputs": [
        {
          "internalType": "uint256",
          "name": "",
          "type": "uint256"
        }
      ],
      "name": "tokenOwner",
      "outputs": [
        {
          "internalType": "address",
          "name": "",
          "type": "address"
        }
      ],
      "stateMutability": "view",
      "type": "function"
    },
    {
      "inputs": [],
      "name": "totalRewards",
      "outputs": [
        {
          "internalType": "uint256",
          "name": "",
          "type": "uint256"
        }
      ],
      "stateMutability": "view",
      "type": "function"
    },
    {
      "inputs": [],
      "name": "totalRewardsClaimed",
      "outputs": [
        {
          "internalType": "uint256",
          "name": "",
          "type": "uint256"
        }
      ],
      "stateMutability": "view",
      "type": "function"
    },
    {
      "inputs": [],
      "name": "totalRewardsEarned",
      "outputs": [
        {
          "internalType": "uint256",
          "name": "",
          "type": "uint256"
        }
      ],
      "stateMutability": "view",
      "type": "function"
    },
    {
      "inputs": [],
      "name": "totalStaked",
      "outputs": [
        {
          "internalType": "uint256",
          "name": "",
          "type": "uint256"
        }
      ],
      "stateMutability": "view",
      "type": "function"
    },
    {
      "inputs": [
        {
          "internalType": "address",
          "name": "newOwner",
          "type": "address"
        }
      ],
      "name": "transferOwnership",
      "outputs": [],
      "stateMutability": "nonpayable",
      "type": "function"
    },
    {
      "inputs": [],
      "name": "unpause",
      "outputs": [],
      "stateMutability": "nonpayable",
      "type": "function"
    },
    {
      "inputs": [
        {
          "internalType": "uint256[]",
          "name": "tokenIds",
          "type": "uint256[]"
        }
      ],
      "name": "unstake",
      "outputs": [],
      "stateMutability": "nonpayable",
      "type": "function"
    },
    {
      "inputs": [
        {
          "internalType": "address",
          "name": "",
          "type": "address"
        }
      ],
      "name": "userRewardPerTokenPaid",
      "outputs": [
        {
          "internalType": "uint256",
          "name": "",
          "type": "uint256"
        }
      ],
      "stateMutability": "view",
      "type": "function"
    }
  ],
  "bytecode": "0x6080806040523460395760017f9b779b17422d0df92223018b32b4d1fa46e071723d6817e2486d003becc55f0055611a99908161003e8239f35b5f80fdfe60806040526004361015610011575f80fd5b5f3560e01c80628cc262146114be5780630700037d146114865780630e15561a146114695780630fbf0a93146111eb578063150b7a021461117a578063158ef93e146111565780631caaa4871461112457806321ae05c81461110a5780632f13b60c146110ea57806330d00505146110bd5780633197cbb6146110a0578063372500ab14610f3f5780633f4ba83a14610ecb5780633fd8b02f14610eae5780635c975abb14610e8d5780636021726714610e5557806360246c8814610d7057806364ec8bdb14610b6c5780636588103b14610b445780637025907714610b0c5780637047bc5214610a82578063715018a614610a26578063733bdef01461090f57806378e97925146108f25780637b0a47ee146108d557806380faa57d146108bb578063817b1cd21461089e5780638456cb59146108365780638b876347146107fe5780638da5cb5b146107d6578063a34b0f76146107b9578063a6b63eb814610649578063b2c9a5211461062b578063c45a015514610600578063c8f33c91146105e3578063cd3daf9d146105c1578063df136d65146105a4578063e449f341146102d5578063f15576a6146102b8578063f2fde38b146102075763f7c618c1146101db575f80fd5b34610203575f366003190112610203576003546040516001600160a01b039091168152602090f35b5f80fd5b34610203576020366003190112610203576102206114e1565b6001546001600160a01b038116916102393384146117df565b6001600160a01b031691821561027f5782907f8be0079c531659141344cd1fd0a4f28419497f9722a3daafe3b4186f6b6457e05f80a36001600160a01b03191617600155005b60405162461bcd60e51b815260206004820152601160248201527024b73b30b634b2103732bb9037bbb732b960791b6044820152606490fd5b34610203575f366003190112610203576020600a54604051908152f35b34610203576102e33661150d565b6102eb611890565b6102f3611829565b6102ff600c5482611594565b80151580610599575b61056e575b50600c55610319611818565b600d5533610543575b61032d81151561163f565b6103363361174d565b91826104e3575b5f5b8281106103ee5750906103ba7fe9772f5cf0f7d78eab7beeb82cba02b00fdbab34ea285fbf4894a2dfc28b714f92335f52601060205260405f20610384848254611594565b905561039283600954611594565b600955335f52601060205260405f2054156103db575b604051926040845260408401916116d2565b92151560208201528033930390a260015f80516020611a4483398151915255005b335f5260136020525f60408120556103a8565b6103f9818484611677565b3590815f5260126020523360018060a01b0360405f205416036104ad575f82815260126020526040902080546001600160a01b031916905561043b8233611963565b6002546001600160a01b0316803b1561020357604051632142170760e11b815230600482015233602482015260448101939093525f908390606490829084905af19182156104a257600192610492575b500161033f565b5f61049c9161169b565b8561048b565b6040513d5f823e3d90fd5b60405162461bcd60e51b815260206004820152600e60248201526d2737ba103cb7bab9103a37b5b2b760911b6044820152606490fd5b335f908152600f60205260408120805491905580610502575b5061033d565b61050e81600a54611594565b600a556040519081527fcea3ca38574abb40b4e3cbf4c4709d6a5caac85b8d74b99c7be9a31c79fe72e660203392a2836104fc565b61054c336115df565b335f52600f60205260405f2055600c54335f52600e60205260405f2055610322565b670de0b6b3a764000061058761059092600954906115a1565b04600a546115d2565b600a558361030d565b506009541515610308565b34610203575f366003190112610203576020600c54604051908152f35b34610203575f3660031901126102035760206105db611829565b604051908152f35b34610203575f366003190112610203576020600d54604051908152f35b34610203575f366003190112610203575f5460405160109190911c6001600160a01b03168152602090f35b34610203575f3660031901126102035760206040516301e133808152f35b346102035760a0366003190112610203576106626114e1565b61066a6114f7565b6044356001600160a01b0381169291908390036102035760643591608435905f5460ff8160081c1661077e57610100600160b01b0319163360101b62010000600160b01b031617610100175f55600180546001600160a01b03199081166001600160a01b03938416908117909255600280548216959093169485179092556003805490921686179091556004849055919262015180828102908315848304909114171561076a576008556301e133808104600555426006556301e1338042019081421161076a577f4199d7ba8b1342c68120fed2309105923e9763f33a5081ce057954e62e458bf29260409260075542600d5582519182526020820152a4005b634e487b7160e01b5f52601160045260245ffd5b60405162461bcd60e51b8152602060048201526013602482015272105b1c9958591e481a5b9a5d1a585b1a5e9959606a1b6044820152606490fd5b34610203575f366003190112610203576020600b54604051908152f35b34610203575f366003190112610203576001546040516001600160a01b039091168152602090f35b34610203576020366003190112610203576001600160a01b0361081f6114e1565b165f52600e602052602060405f2054604051908152f35b34610203575f366003190112610203575f5460019061086333601083901c6001600160a01b0316146117a4565b61086b6118c8565b60ff1916175f557f62e78cea01bee320cd4e420270b5ea74000d11b0c9f74754ebdbfc544b05a2586020604051338152a1005b34610203575f366003190112610203576020600954604051908152f35b34610203575f3660031901126102035760206105db611818565b34610203575f366003190112610203576020600554604051908152f35b34610203575f366003190112610203576020600654604051908152f35b34610203576020366003190112610203576109286114e1565b6001600160a01b0381165f818152601060205260408120549192819061094d906115df565b93805f52601160205260405f2090604051808360208295549384815201905f5260205f20925f5b818110610a0d5750506109899250038361169b565b60085490811515806109f8575b6109d0575b50506109bf906040519586958652602086015260a0604086015260a0850190611561565b911515606084015260808301520390f35b909193506109ea92505f52601360205260405f20546115d2565b6109bf81421092908661099b565b50805f52601360205260405f20541515610996565b8454835260019485019487945060209093019201610974565b34610203575f366003190112610203576001545f6001600160a01b038216610a4f3382146117df565b7f8be0079c531659141344cd1fd0a4f28419497f9722a3daafe3b4186f6b6457e08280a36001600160a01b031916600155005b34610203576020366003190112610203576001600160a01b03610aa36114e1565b165f52601160205260405f206040519081602082549182815201915f5260205f20905f5b818110610af657610af285610ade8187038261169b565b604051918291602083526020830190611561565b0390f35b8254845260209093019260019283019201610ac7565b34610203576020366003190112610203576001600160a01b03610b2d6114e1565b165f526013602052602060405f2054604051908152f35b34610203575f366003190112610203576002546040516001600160a01b039091168152602090f35b34610203575f36600319011261020357610b9160018060a01b036001541633146117df565b610b99611890565b610ba1611829565b610bad600c5482611594565b80151580610d65575b610d43575b50600c55610bc7611818565b600d556007544210610d0b576003546040516370a0823160e01b81523060048201526001600160a01b0390911690602081602481855afa9081156104a2575f91610cd9575b50610c1c600a54600b5490611594565b9081811115610c9457610c4891610c3291611594565b600154909283916001600160a01b0316906118e2565b6001546040519182526001600160a01b0316907f957727802c31109adcff14fcfbd2dc576e9bfd4d6385ddd160fe42832a4555fe90602090a260015f80516020611a4483398151915255005b60405162461bcd60e51b815260206004820152601760248201527f4e6f20776974686472617761626c6520726577617264730000000000000000006044820152606490fd5b90506020813d602011610d03575b81610cf46020938361169b565b81010312610203575182610c0c565b3d9150610ce7565b60405162461bcd60e51b815260206004820152601060248201526f141bdbdb081b9bdd08195e1c1a5c995960821b6044820152606490fd5b670de0b6b3a7640000610587610d5c92600954906115a1565b600a5581610bbb565b506009541515610bb6565b34610203575f36600319011261020357600254600354600480546009546005546006546007546040516370a0823160e01b8152309681019690965294966001600160a01b0390811696169491602088602481895afa9384156104a2575f94610e1f575b610140985060018060a01b03600154169560085497604051998a5260208a015260408901526060880152608087015260a086015260c085015260e0840152610100830152610120820152f35b93506020883d602011610e4d575b81610e3a6020938361169b565b8101031261020357610140975193610dd3565b3d9150610e2d565b34610203576020366003190112610203576001600160a01b03610e766114e1565b165f526010602052602060405f2054604051908152f35b34610203575f36600319011261020357602060ff5f54166040519015158152f35b34610203575f366003190112610203576020600854604051908152f35b34610203575f366003190112610203575f54610ef533601083901c6001600160a01b0316146117a4565b60ff811615610f305760ff19165f557f5db9ee0a495bf2e6ff9c91a7834c1ba4fdd244a5e8aa4e537bd38aeae4b073aa6020604051338152a1005b638dfc202b60e01b5f5260045ffd5b34610203575f36600319011261020357610f57611890565b610f5f611829565b610f6b600c5482611594565b80151580611095575b611073575b50600c55610f85611818565b600d5533611048575b335f52600f60205260405f2054801561101657335f52600f6020525f6040812055610fbb81600b546115d2565b600b55600354610fd790829033906001600160a01b03166118e2565b6040519081527ffc30cddea38e2bf4d6ea7d3f9ed3b6ad7f176419f4963bd81318067a4aee73fe60203392a260015f80516020611a4483398151915255005b60405162461bcd60e51b815260206004820152600a6024820152694e6f207265776172647360b01b6044820152606490fd5b611051336115df565b335f52600f60205260405f2055600c54335f52600e60205260405f2055610f8e565b670de0b6b3a764000061058761108c92600954906115a1565b600a5581610f79565b506009541515610f74565b34610203575f366003190112610203576020600754604051908152f35b346102035760203660031901126102035760206110e06110db6114e1565b61174d565b6040519015158152f35b34610203575f366003190112610203576020600754421015604051908152f35b34610203575f3660031901126102035760206105db6116f6565b34610203576020366003190112610203576004355f526012602052602060018060a01b0360405f205416604051908152f35b34610203575f36600319011261020357602060ff5f5460081c166040519015158152f35b34610203576080366003190112610203576111936114e1565b5061119c6114f7565b5060643567ffffffffffffffff8111610203573660238201121561020357806004013567ffffffffffffffff8111610203573691016024011161020357604051630a85bd0160e11b8152602090f35b34610203576111f93661150d565b90611202611890565b61120a6118c8565b611212611829565b61121e600c5482611594565b8015158061145e575b61143c575b50600c55611238611818565b600d5533611411575b6007544210156113dd5761125682151561163f565b5f5b8281106112e757506112d17f134b166c6094cc1ccbf1e3353ce5c3cd9fd29869051bdb999895854d77cc5ef691335f52601060205260405f2061129c8582546115d2565b90556112aa846009546115d2565b600955335f5260136020524260405f205560405191829160208352339560208401916116d2565b0390a260015f80516020611a4483398151915255005b6112f2818484611677565b600254903591906001600160a01b0316803b1561020357604051632142170760e11b815233600482015230602482015260448101849052905f908290606490829084905af180156104a2576113cd575b50815f52601260205260405f20336bffffffffffffffffffffffff60a01b825416179055335f52601160205260405f2091825490680100000000000000008210156113b95761139b82600195866113b3950181556116bd565b90919082549060031b91821b915f19901b1916179055565b01611258565b634e487b7160e01b5f52604160045260245ffd5b5f6113d79161169b565b84611342565b60405162461bcd60e51b815260206004820152600c60248201526b141bdbdb08195e1c1a5c995960a21b6044820152606490fd5b61141a336115df565b335f52600f60205260405f2055600c54335f52600e60205260405f2055611241565b670de0b6b3a764000061058761145592600954906115a1565b600a558361122c565b506009541515611227565b34610203575f366003190112610203576020600454604051908152f35b34610203576020366003190112610203576001600160a01b036114a76114e1565b165f52600f602052602060405f2054604051908152f35b346102035760203660031901126102035760206105db6114dc6114e1565b6115df565b600435906001600160a01b038216820361020357565b602435906001600160a01b038216820361020357565b9060206003198301126102035760043567ffffffffffffffff811161020357826023820112156102035780600401359267ffffffffffffffff84116102035760248460051b83010111610203576024019190565b90602080835192838152019201905f5b81811061157e5750505090565b8251845260209384019390920191600101611571565b9190820391821161076a57565b8181029291811591840414171561076a57565b81156115be570490565b634e487b7160e01b5f52601260045260245ffd5b9190820180921161076a57565b61163c9060018060a01b0316805f526010602052670de0b6b3a764000061162860405f205461162261160f611829565b855f52600e60205260405f205490611594565b906115a1565b04905f52600f60205260405f2054906115d2565b90565b1561164657565b60405162461bcd60e51b81526020600482015260096024820152684e6f20746f6b656e7360b81b6044820152606490fd5b91908110156116875760051b0190565b634e487b7160e01b5f52603260045260245ffd5b90601f8019910116810190811067ffffffffffffffff8211176113b957604052565b8054821015611687575f5260205f2001905f90565b81835290916001600160fb1b0383116102035760209260051b809284830137010190565b600954801561174857600554906301e133808202918083046301e13380148115171561076a576a1a1601fc4ea7109e0000000291808304670de0b6b3a7640000149015171561076a5761163c916115b4565b505f90565b60085480158015611785575b61177f5761177a9160018060a01b03165f52601360205260405f20546115d2565b421090565b50505f90565b506001600160a01b0382165f9081526013602052604090205415611759565b156117ab57565b60405162461bcd60e51b815260206004820152600c60248201526b4f6e6c7920666163746f727960a01b6044820152606490fd5b156117e657565b60405162461bcd60e51b815260206004820152600a60248201526927b7363c9037bbb732b960b11b6044820152606490fd5b6007548042105f1461163c57504290565b600954801561188957600c5461185561184c611843611818565b600d5490611594565b600554906115a1565b670de0b6b3a7640000810290808204670de0b6b3a7640000149015171561076a5761163c92611883916115b4565b906115d2565b50600c5490565b60025f80516020611a4483398151915254146118b95760025f80516020611a4483398151915255565b633ee5aeb560e01b5f5260045ffd5b60ff5f54166118d357565b63d93c066560e01b5f5260045ffd5b916040519163a9059cbb60e01b5f5260018060a01b031660045260245260205f60448180865af19060015f5114821615611942575b604052156119225750565b635274afe760e01b5f9081526001600160a01b0391909116600452602490fd5b90600181151661195a57823b15153d15161690611917565b503d5f823e3d90fd5b6001600160a01b03165f908152601160205260408120905b815480821015611a0c578361199083856116bd565b90549060031b1c146119a5575060010161197b565b9192505f19820191821161076a5761139b6119c36119d193856116bd565b90549060031b1c91846116bd565b805480156119f8575f1901906119e782826116bd565b8154905f199060031b1b1916905555565b634e487b7160e01b5f52603160045260245ffd5b60405162461bcd60e51b815260206004820152600f60248201526e151bdad95b881b9bdd08199bdd5b99608a1b6044820152606490fdfe9b779b17422d0df92223018b32b4d1fa46e071723d6817e2486d003becc55f00a2646970667358221220e3d987ba94983b17139e2ea3f1e2f50c7f120c624b6529a45b16900bed27af6f64736f6c634300081a0033",
  "linkReferences": {},
  "deployedLinkReferences": {}
}