{
  "_format": "hh-sol-artifact-1",
  "contractName": "StakingFactory",
  "sourceName": "contracts/StakingFactory.sol",
  "abi": [
    {
      "inputs": [
        {
          "internalType": "address",
          "name": "_poolImplementation",
          "type": "address"
        },
        {
          "internalType": "address",
          "name": "_feeCollector",
          "type": "address"
        },
        {
          "internalType": "address",
          "name": "_feeToken",
          "type": "address"
        },
        {
          "internalType": "uint256",
          "name": "_creationFee",
          "type": "uint256"
        }
      ],
      "stateMutability": "nonpayable",
      "type": "constructor"
    },
    {
      "inputs": [],
      "name": "EnforcedPause",
      "type": "error"
    },
    {
      "inputs": [],
      "name": "ExpectedPause",
      "type": "error"
    },
    {
      "inputs": [],
      "name": "FailedDeployment",
      "type": "error"
    },
    {
      "inputs": [
        {
          "internalType": "uint256",
          "name": "balance",
          "type": "uint256"
        },
        {
          "internalType": "uint256",
          "name": "needed",
          "type": "uint256"
        }
      ],
      "name": "InsufficientBalance",
      "type": "error"
    },
    {
      "inputs": [
        {
          "internalType": "address",
          "name": "owner",
          "type": "address"
        }
      ],
      "name": "OwnableInvalidOwner",
      "type": "error"
    },
    {
      "inputs": [
        {
          "internalType": "address",
          "name": "account",
          "type": "address"
        }
      ],
      "name": "OwnableUnauthorizedAccount",
      "type": "error"
    },
    {
      "inputs": [],
      "name": "ReentrancyGuardReentrantCall",
      "type": "error"
    },
    {
      "inputs": [
        {
          "internalType": "address",
          "name": "token",
          "type": "address"
        }
      ],
      "name": "SafeERC20FailedOperation",
      "type": "error"
    },
    {
      "anonymous": false,
      "inputs": [
        {
          "indexed": false,
          "internalType": "uint256",
          "name": "oldFee",
          "type": "uint256"
        },
        {
          "indexed": false,
          "internalType": "uint256",
          "name": "newFee",
          "type": "uint256"
        },
        {
          "indexed": false,
          "internalType": "address",
          "name": "updatedBy",
          "type": "address"
        }
      ],
      "name": "CreationFeeUpdated",
      "type": "event"
    },
    {
      "anonymous": false,
      "inputs": [
        {
          "indexed": true,
          "internalType": "address",
          "name": "payer",
          "type": "address"
        },
        {
          "indexed": true,
          "internalType": "address",
          "name": "token",
          "type": "address"
        },
        {
          "indexed": false,
          "internalType": "uint256",
          "name": "amount",
          "type": "uint256"
        }
      ],
      "name": "FeeCollected",
      "type": "event"
    },
    {
      "anonymous": false,
      "inputs": [
        {
          "indexed": true,
          "internalType": "address",
          "name": "oldCollector",
          "type": "address"
        },
        {
          "indexed": true,
          "internalType": "address",
          "name": "newCollector",
          "type": "address"
        },
        {
          "indexed": false,
          "internalType": "address",
          "name": "updatedBy",
          "type": "address"
        }
      ],
      "name": "FeeCollectorUpdated",
      "type": "event"
    },
    {
      "anonymous": false,
      "inputs": [
        {
          "indexed": true,
          "internalType": "address",
          "name": "to",
          "type": "address"
        },
        {
          "indexed": false,
          "internalType": "uint256",
          "name": "amount",
          "type": "uint256"
        }
      ],
      "name": "FeeRefunded",
      "type": "event"
    },
    {
      "anonymous": false,
      "inputs": [
        {
          "indexed": true,
          "internalType": "address",
          "name": "oldToken",
          "type": "address"
        },
        {
          "indexed": true,
          "internalType": "address",
          "name": "newToken",
          "type": "address"
        },
        {
          "indexed": false,
          "internalType": "address",
          "name": "updatedBy",
          "type": "address"
        }
      ],
      "name": "FeeTokenUpdated",
      "type": "event"
    },
    {
      "anonymous": false,
      "inputs": [
        {
          "indexed": true,
          "internalType": "address",
          "name": "previousOwner",
          "type": "address"
        },
        {
          "indexed": true,
          "internalType": "address",
          "name": "newOwner",
          "type": "address"
        }
      ],
      "name": "OwnershipTransferred",
      "type": "event"
    },
    {
      "anonymous": false,
      "inputs": [
        {
          "indexed": false,
          "internalType": "address",
          "name": "account",
          "type": "address"
        }
      ],
      "name": "Paused",
      "type": "event"
    },
    {
      "anonymous": false,
      "inputs": [
        {
          "indexed": true,
          "internalType": "address",
          "name": "pool",
          "type": "address"
        },
        {
          "indexed": true,
          "internalType": "address",
          "name": "creator",
          "type": "address"
        },
        {
          "indexed": true,
          "internalType": "address",
          "name": "nftCollection",
          "type": "address"
        },
        {
          "indexed": false,
          "internalType": "address",
          "name": "rewardToken",
          "type": "address"
        },
        {
          "indexed": false,
          "internalType": "uint256",
          "name": "totalRewards",
          "type": "uint256"
        },
        {
          "indexed": false,
          "internalType": "uint256",
          "name": "lockPeriodDays",
          "type": "uint256"
        },
        {
          "indexed": false,
          "internalType": "string",
          "name": "name",
          "type": "string"
        },
        {
          "indexed": false,
          "internalType": "uint256",
          "name": "poolIndex",
          "type": "uint256"
        }
      ],
      "name": "PoolCreated",
      "type": "event"
    },
    {
      "anonymous": false,
      "inputs": [
        {
          "indexed": true,
          "internalType": "address",
          "name": "pool",
          "type": "address"
        },
        {
          "indexed": true,
          "internalType": "address",
          "name": "pausedBy",
          "type": "address"
        }
      ],
      "name": "PoolPausedByFactory",
      "type": "event"
    },
    {
      "anonymous": false,
      "inputs": [
        {
          "indexed": true,
          "internalType": "address",
          "name": "pool",
          "type": "address"
        },
        {
          "indexed": true,
          "internalType": "address",
          "name": "unpausedBy",
          "type": "address"
        }
      ],
      "name": "PoolUnpausedByFactory",
      "type": "event"
    },
    {
      "anonymous": false,
      "inputs": [
        {
          "indexed": false,
          "internalType": "address",
          "name": "account",
          "type": "address"
        }
      ],
      "name": "Unpaused",
      "type": "event"
    },
    {
      "inputs": [
        {
          "internalType": "uint256",
          "name": "",
          "type": "uint256"
        }
      ],
      "name": "allPools",
      "outputs": [
        {
          "internalType": "address",
          "name": "",
          "type": "address"
        }
      ],
      "stateMutability": "view",
      "type": "function"
    },
    {
      "inputs": [
        {
          "internalType": "address",
          "name": "nftCollection",
          "type": "address"
        },
        {
          "internalType": "address",
          "name": "rewardToken",
          "type": "address"
        },
        {
          "internalType": "uint256",
          "name": "totalRewards",
          "type": "uint256"
        },
        {
          "internalType": "uint256",
          "name": "lockPeriodDays",
          "type": "uint256"
        },
        {
          "internalType": "string",
          "name": "_name",
          "type": "string"
        },
        {
          "internalType": "string",
          "name": "_description",
          "type": "string"
        },
        {
          "internalType": "string",
          "name": "_logoUrl",
          "type": "string"
        }
      ],
      "name": "createPool",
      "outputs": [
        {
          "internalType": "address",
          "name": "pool",
          "type": "address"
        }
      ],
      "stateMutability": "payable",
      "type": "function"
    },
    {
      "inputs": [],
      "name": "creationFee",
      "outputs": [
        {
          "internalType": "uint256",
          "name": "",
          "type": "uint256"
        }
      ],
      "stateMutability": "view",
      "type": "function"
    },
    {
      "inputs": [],
      "name": "feeCollector",
      "outputs": [
        {
          "internalType": "contract FeeCollector",
          "name": "",
          "type": "address"
        }
      ],
      "stateMutability": "view",
      "type": "function"
    },
    {
      "inputs": [],
      "name": "feeToken",
      "outputs": [
        {
          "internalType": "address",
          "name": "",
          "type": "address"
        }
      ],
      "stateMutability": "view",
      "type": "function"
    },
    {
      "inputs": [],
      "name": "getAllPools",
      "outputs": [
        {
          "internalType": "address[]",
          "name": "",
          "type": "address[]"
        }
      ],
      "stateMutability": "view",
      "type": "function"
    },
    {
      "inputs": [
        {
          "internalType": "address",
          "name": "pool",
          "type": "address"
        }
      ],
      "name": "getPoolInfo",
      "outputs": [
        {
          "components": [
            {
              "internalType": "address",
              "name": "pool",
              "type": "address"
            },
            {
              "internalType": "address",
              "name": "creator",
              "type": "address"
            },
            {
              "internalType": "address",
              "name": "nftCollection",
              "type": "address"
            },
            {
              "internalType": "address",
              "name": "rewardToken",
              "type": "address"
            },
            {
              "internalType": "uint256",
              "name": "totalRewards",
              "type": "uint256"
            },
            {
              "internalType": "uint256",
              "name": "lockPeriodDays",
              "type": "uint256"
            },
            {
              "internalType": "uint256",
              "name": "createdAt",
              "type": "uint256"
            },
            {
              "internalType": "string",
              "name": "name",
              "type": "string"
            },
            {
              "internalType": "string",
              "name": "description",
              "type": "string"
            },
            {
              "internalType": "string",
              "name": "logoUrl",
              "type": "string"
            }
          ],
          "internalType": "struct StakingFactory.PoolInfo",
          "name": "",
          "type": "tuple"
        }
      ],
      "stateMutability": "view",
      "type": "function"
    },
    {
      "inputs": [
        {
          "internalType": "uint256",
          "name": "offset",
          "type": "uint256"
        },
        {
          "internalType": "uint256",
          "name": "limit",
          "type": "uint256"
        }
      ],
      "name": "getPools",
      "outputs": [
        {
          "internalType": "address[]",
          "name": "pools",
          "type": "address[]"
        }
      ],
      "stateMutability": "view",
      "type": "function"
    },
    {
      "inputs": [
        {
          "internalType": "address",
          "name": "_creator",
          "type": "address"
        }
      ],
      "name": "getPoolsByCreator",
      "outputs": [
        {
          "internalType": "address[]",
          "name": "",
          "type": "address[]"
        }
      ],
      "stateMutability": "view",
      "type": "function"
    },
    {
      "inputs": [
        {
          "internalType": "address",
          "name": "",
          "type": "address"
        }
      ],
      "name": "isPool",
      "outputs": [
        {
          "internalType": "bool",
          "name": "",
          "type": "bool"
        }
      ],
      "stateMutability": "view",
      "type": "function"
    },
    {
      "inputs": [],
      "name": "owner",
      "outputs": [
        {
          "internalType": "address",
          "name": "",
          "type": "address"
        }
      ],
      "stateMutability": "view",
      "type": "function"
    },
    {
      "inputs": [],
      "name": "pause",
      "outputs": [],
      "stateMutability": "nonpayable",
      "type": "function"
    },
    {
      "inputs": [
        {
          "internalType": "address",
          "name": "pool",
          "type": "address"
        }
      ],
      "name": "pausePool",
      "outputs": [],
      "stateMutability": "nonpayable",
      "type": "function"
    },
    {
      "inputs": [],
      "name": "paused",
      "outputs": [
        {
          "internalType": "bool",
          "name": "",
          "type": "bool"
        }
      ],
      "stateMutability": "view",
      "type": "function"
    },
    {
      "inputs": [],
      "name": "poolImplementation",
      "outputs": [
        {
          "internalType": "address",
          "name": "",
          "type": "address"
        }
      ],
      "stateMutability": "view",
      "type": "function"
    },
    {
      "inputs": [
        {
          "internalType": "address",
          "name": "",
          "type": "address"
        }
      ],
      "name": "poolInfo",
      "outputs": [
        {
          "internalType": "address",
          "name": "pool",
          "type": "address"
        },
        {
          "internalType": "address",
          "name": "creator",
          "type": "address"
        },
        {
          "internalType": "address",
          "name": "nftCollection",
          "type": "address"
        },
        {
          "internalType": "address",
          "name": "rewardToken",
          "type": "address"
        },
        {
          "internalType": "uint256",
          "name": "totalRewards",
          "type": "uint256"
        },
        {
          "internalType": "uint256",
          "name": "lockPeriodDays",
          "type": "uint256"
        },
        {
          "internalType": "uint256",
          "name": "createdAt",
          "type": "uint256"
        },
        {
          "internalType": "string",
          "name": "name",
          "type": "string"
        },
        {
          "internalType": "string",
          "name": "description",
          "type": "string"
        },
        {
          "internalType": "string",
          "name": "logoUrl",
          "type": "string"
        }
      ],
      "stateMutability": "view",
      "type": "function"
    },
    {
      "inputs": [
        {
          "internalType": "address",
          "name": "",
          "type": "address"
        },
        {
          "internalType": "uint256",
          "name": "",
          "type": "uint256"
        }
      ],
      "name": "poolsByCreator",
      "outputs": [
        {
          "internalType": "address",
          "name": "",
          "type": "address"
        }
      ],
      "stateMutability": "view",
      "type": "function"
    },
    {
      "inputs": [],
      "name": "renounceOwnership",
      "outputs": [],
      "stateMutability": "nonpayable",
      "type": "function"
    },
    {
      "inputs": [
        {
          "internalType": "uint256",
          "name": "_newFee",
          "type": "uint256"
        }
      ],
      "name": "setCreationFee",
      "outputs": [],
      "stateMutability": "nonpayable",
      "type": "function"
    },
    {
      "inputs": [
        {
          "internalType": "address payable",
          "name": "_newCollector",
          "type": "address"
        }
      ],
      "name": "setFeeCollector",
      "outputs": [],
      "stateMutability": "nonpayable",
      "type": "function"
    },
    {
      "inputs": [
        {
          "internalType": "address",
          "name": "_newToken",
          "type": "address"
        }
      ],
      "name": "setFeeToken",
      "outputs": [],
      "stateMutability": "nonpayable",
      "type": "function"
    },
    {
      "inputs": [],
      "name": "totalPools",
      "outputs": [
        {
          "internalType": "uint256",
          "name": "",
          "type": "uint256"
        }
      ],
      "stateMutability": "view",
      "type": "function"
    },
    {
      "inputs": [
        {
          "internalType": "address",
          "name": "newOwner",
          "type": "address"
        }
      ],
      "name": "transferOwnership",
      "outputs": [],
      "stateMutability": "nonpayable",
      "type": "function"
    },
    {
      "inputs": [],
      "name": "unpause",
      "outputs": [],
      "stateMutability": "nonpayable",
      "type": "function"
    },
    {
      "inputs": [
        {
          "internalType": "address",
          "name": "pool",
          "type": "address"
        }
      ],
      "name": "unpausePool",
      "outputs": [],
      "stateMutability": "nonpayable",
      "type": "function"
    }
  ],
  "bytecode": "0x60a0346101df57601f61216d38819003918201601f19168301916001600160401b038311848410176101e3578084926080946040528339810103126101df57610047816101f7565b90610054602082016101f7565b916060610063604084016101f7565b9201519233156101cc575f8054336001600160a01b03198216811783556040519290916001600160a01b0316907f8be0079c531659141344cd1fd0a4f28419497f9722a3daafe3b4186f6b6457e09080a360017f9b779b17422d0df92223018b32b4d1fa46e071723d6817e2486d003becc55f00556001600160a01b0383161561018a57506001600160a01b03169081156101455760805260018060a01b0319600154161760015560018060a01b031660018060a01b03196003541617600355600255604051611f61908161020c823960805181818161039901526105a70152f35b60405162461bcd60e51b815260206004820152601560248201527f496e76616c69642066656520636f6c6c6563746f7200000000000000000000006044820152606490fd5b62461bcd60e51b815260206004820152601660248201527f496e76616c696420696d706c656d656e746174696f6e000000000000000000006044820152606490fd5b631e4fbdf760e01b5f525f60045260245ffd5b5f80fd5b634e487b7160e01b5f52604160045260245ffd5b51906001600160a01b03821682036101df5756fe6080806040526004361015610012575f80fd5b5f905f3560e01c90816306bfa938146116be5750806315cce2241461164c5780633f4ba83a146115e057806341d1de97146115b757806355aca1ec146115005780635b16ebb7146114c15780635c975abb1461149c578063647846a514611473578063715018a6146114195780638456cb59146113b85780638da5cb5b146113915780639a7b5f111461129d578063a42dce80146111de578063ab3c7e52146111c0578063b7d8622514611164578063bbe9583714611141578063c415b95c14611118578063c84728ef1461109d578063cb428f3f146103c8578063cefa779914610383578063d88ff1f4146102f5578063dce0b4e4146102d7578063f21c38cd1461021a578063f2fde38b146101945763fcbf570b14610131575f80fd5b346101915760403660031901126101915761014a611891565b6001600160a01b031681526005602052604081208054602435929083101561019157602061017884846118f7565b905460405160039290921b1c6001600160a01b03168152f35b80fd5b5034610191576020366003190112610191576101ae611891565b6101b6611c48565b6001600160a01b031680156102065781546001600160a01b03198116821783556001600160a01b03167f8be0079c531659141344cd1fd0a4f28419497f9722a3daafe3b4186f6b6457e08380a380f35b631e4fbdf760e01b82526004829052602482fd5b503461019157602036600319011261019157610234611891565b61023c611c48565b6001600160a01b03168082526006602052604082205461025e9060ff16611aa7565b803b156102c857604051631fa5d41d60e11b81528290818160048183875af180156102cc576102b3575b505033907f72975dc498e1d747f7ea355218944beaa6a5438841090fdb0ac9ffe43e06bfe88380a380f35b816102bd91611975565b6102c857815f610288565b5080fd5b6040513d84823e3d90fd5b50346101915780600319360112610191576020600254604051908152f35b503461019157806003193601126101915760405180916020600454928381520191600482527f8a35acfbc15ff81a39ae7d344fd709f28e8600b4aa8c65c6b64bfe7fe36bd19b915b818110610364576103608561035481870382611975565b60405191829182611a37565b0390f35b82546001600160a01b031684526020909301926001928301920161033d565b50346101915780600319360112610191576040517f00000000000000000000000000000000000000000000000000000000000000006001600160a01b03168152602090f35b5060e0366003190112610191576103dd611891565b6024356001600160a01b03811681036110995760843567ffffffffffffffff811161109557610410903690600401611a79565b91909260a43567ffffffffffffffff811161109157610433903690600401611a79565b9460c43567ffffffffffffffff811161108d57610454903690600401611a79565b969060027f9b779b17422d0df92223018b32b4d1fa46e071723d6817e2486d003becc55f00541461107e5760027f9b779b17422d0df92223018b32b4d1fa46e071723d6817e2486d003becc55f00556104ab611c6e565b6001600160a01b03851615611043576001600160a01b038616156110075760443515610fcc5761016d60643511610f775786151580610f6c575b15610f33576101f48211610eee576101008811610ea9576040516301ffc9a760e01b81526380ac58cd60e01b60048201526020816024816001600160a01b038a165afa8a9181610e68575b506105885760405162461bcd60e51b815260206004820152602560248201527f4e465420636f6e747261637420646f6573206e6f7420737570706f7274204552604482015264432d31363560d81b6064820152608490fd5b15610e2357610595611cba565b6e5af43d82803e903d91602b57fd5bf37f0000000000000000000000000000000000000000000000000000000000000000763d602d80600a3d3981f3363d3d373d3d3d363d7300000062ffffff8260881c16178b5260781b17602052603760098af0976001600160a01b03891615610e14576040516370a0823160e01b81526001600160a01b038a81166004830152602090829060249082908c165afa908115610e09578b91610dd7575b506106586044358b336001600160a01b038c16611e99565b6040516370a0823160e01b81526001600160a01b038b81166004830152909190602090839060249082908d165afa918215610dcc578c92610d92575b506106a29060443592611b19565b03610d41576001600160a01b0389163b15610d3d578989818960a48a8360405195869485936314d6c7d760e31b855233600486015260018060a01b0316602485015260018060a01b031660448401526044356064840152606435608484015260018060a01b03165af180156102cc57610d28575b50506004549485600160401b811015610d145780600161073b920160045560046118f7565b81546001600160a01b038d811660039390931b92831b921b1916179055338b52600560205260408b20805490600160401b821015610d0057918b61078d8361082c979695600161081f960181556118f7565b81546001600160a01b0393841660039290921b91821b9184901b19161790558c168d5260066020526040808e20805460ff1916600117905551956107d087611944565b6001600160a01b038d811688523360208901528a811660408901528b166060880152604435608088015260643560a08801524260c0880152610813368d8a611c12565b60e08801523691611c12565b6101008501523691611c12565b6101208201526001600160a01b038781168952600760209081526040808b20845181546001600160a01b0319908116918616919091178255928501516001820180548516918616919091179055908401516002820180548416918516919091179055606084015160038201805490931693169290921790556080820151600482015560a0820151600582015560c0820151600682015560e082015180519067ffffffffffffffff8211610c275781906108e8600785015461190c565b601f8111610cae575b50602090601f8311600114610c46578c92610c3b575b50508160011b915f199060031b1c19161760078201555b61010082015180519067ffffffffffffffff8211610c2757610943600884015461190c565b601f8111610bdf575b506020908b601f8411600114610b7057926101209492819260099592610b65575b50508160011b915f199060031b1c19161760088201555b0191015180519067ffffffffffffffff8211610b51576109a4835461190c565b601f8111610b0c575b5091899391889360209b508b90601f8311600114610aa45786919083610a99575b50508160011b915f199060031b1c19161790555b6040519560018060a01b0316865260443589870152606435604087015260a060608701528160a087015260c086013760c08585010152608083015260018060a01b0316917f7cc3ca1d94c018e4aff51a0e47651bd5d94d7039a30b2741008fed01871274dc339260c08160018060a01b03881694601f80199101168101030190a460017f9b779b17422d0df92223018b32b4d1fa46e071723d6817e2486d003becc55f00556040516001600160a01b039091168152f35b015190505f806109ce565b838752818720601f19841696959493929091885b888110610af257508360019596979810610ada575b505050811b0190556109e2565b01515f1960f88460031b161c191690555f8080610acd565b8183015184558d9750600190930192918f01918f01610ab8565b838b5260208b20601f840160051c81019160208510610b47575b601f0160051c01905b818110610b3c57506109ad565b8b8155600101610b2f565b9091508190610b26565b634e487b7160e01b8a52604160045260248afd5b015190505f8061096d565b50600884018c52818c209190601f1984168d5b818110610bc75750926001928592600996610120989610610baf575b505050811b016008820155610984565b01515f1960f88460031b161c191690555f8080610b9f565b92936020600181928786015181550195019301610b83565b600884018c5260208c20601f840160051c81019160208510610c1d575b601f0160051c01905b818110610c12575061094c565b8c8155600101610c05565b9091508190610bfc565b634e487b7160e01b8b52604160045260248bfd5b015190505f80610907565b600785018d52818d209250601f1984168d5b818110610c965750908460019594939210610c7e575b505050811b01600782015561091e565b01515f1960f88460031b161c191690555f8080610c6e565b92936020600181928786015181550195019301610c58565b909150600784018c5260208c20601f840160051c810160208510610cf9575b84939291908e5b601f840160051c83018210610ceb575050506108f1565b81558594506001018e610cd4565b5080610ccd565b634e487b7160e01b8d52604160045260248dfd5b634e487b7160e01b8c52604160045260248cfd5b81610d3291611975565b610d3d57895f610716565b8980fd5b60405162461bcd60e51b8152602060048201526024808201527f4665652d6f6e2d7472616e7366657220746f6b656e73206e6f7420737570706f6044820152631c9d195960e21b6064820152608490fd5b9091506020813d602011610dc4575b81610dae60209383611975565b81010312610dc05751906106a2610694565b5f80fd5b3d9150610da1565b6040513d8e823e3d90fd5b90506020813d602011610e01575b81610df260209383611975565b81010312610dc057515f610640565b3d9150610de5565b6040513d8d823e3d90fd5b63b06ebf3d60e01b8a5260048afd5b60405162461bcd60e51b815260206004820152601e60248201527f4e6f7420612076616c6964204552432d37323120636f6c6c656374696f6e00006044820152606490fd5b9091506020813d602011610ea1575b81610e8460209383611975565b81010312610e9d57518015158103610e9d57905f610530565b8a80fd5b3d9150610e77565b60405162461bcd60e51b815260206004820152601760248201527f4c6f676f2055524c3a206d6178203235362063686172730000000000000000006044820152606490fd5b60405162461bcd60e51b815260206004820152601a60248201527f4465736372697074696f6e3a206d6178203530302063686172730000000000006044820152606490fd5b60405162461bcd60e51b81526020600482015260116024820152704e616d653a20312d31303020636861727360781b6044820152606490fd5b5060648711156104e5565b60405162461bcd60e51b815260206004820152602760248201527f4c6f636b20706572696f642063616e6e6f742065786365656420706f6f6c20646044820152663ab930ba34b7b760c91b6064820152608490fd5b60405162461bcd60e51b8152602060048201526013602482015272052657761726473206d757374206265203e203606c1b6044820152606490fd5b60405162461bcd60e51b815260206004820152601460248201527324b73b30b634b2103932bbb0b932103a37b5b2b760611b6044820152606490fd5b60405162461bcd60e51b8152602060048201526013602482015272496e76616c6964204e4654206164647265737360681b6044820152606490fd5b633ee5aeb560e01b8952600489fd5b8780fd5b8580fd5b8380fd5b8280fd5b5034610191576020366003190112610191576001600160a01b036110bf611891565b168152600560205260408120604051918260208354918281520192825260208220915b8181106110f9576103608561035481870382611975565b82546001600160a01b03168452602090930192600192830192016110e2565b50346101915780600319360112610191576001546040516001600160a01b039091168152602090f35b503461019157604036600319011261019157610360610354602435600435611b26565b503461019157602036600319011261019157600435611181611c48565b7fcf6ba38564654f22e1cd03d3b4ecb765884d356b6e051f2433185e44eacb15016060600254604051908152836020820152336040820152a160025580f35b50346101915780600319360112610191576020600454604051908152f35b5034610191576020366003190112610191576004356001600160a01b038116908190036102c85761120d611c48565b80156112605760015460405133815282906001600160a01b038316907f9dfcadd14a1ddfb19c51e84b87452ca32a43c5559e9750d1575c77105cdeac1e90602090a36001600160a01b0319161760015580f35b60405162461bcd60e51b815260206004820152601560248201527424b73b30b634b2103332b29031b7b63632b1ba37b960591b6044820152606490fd5b5034610191576020366003190112610191576040906001600160a01b036112c2611891565b1681526007602081905291902080546001820154600283015460038401546004850154600586015460068701546001600160a01b03958616989686169761036097958716966113829691956113739591169391611320908701611997565b93611339600961133260088a01611997565b9801611997565b986040519c8d9c8d5260208d015260408c015260608b015260808a015260a089015260c088015261014060e08801526101408701906118a7565b908582036101008701526118a7565b908382036101208501526118a7565b5034610191578060031936011261019157546040516001600160a01b039091168152602090f35b50346101915780600319360112610191576113d1611c48565b6113d9611c6e565b805460ff60a01b1916600160a01b1781556040513381527f62e78cea01bee320cd4e420270b5ea74000d11b0c9f74754ebdbfc544b05a25890602090a180f35b5034610191578060031936011261019157611432611c48565b80546001600160a01b03198116825581906001600160a01b03167f8be0079c531659141344cd1fd0a4f28419497f9722a3daafe3b4186f6b6457e08280a380f35b50346101915780600319360112610191576003546040516001600160a01b039091168152602090f35b503461019157806003193601126101915760ff6020915460a01c166040519015158152f35b50346101915760203660031901126101915760209060ff906040906001600160a01b036114ec611891565b168152600684522054166040519015158152f35b5034610dc0576020366003190112610dc05761151a611891565b611522611c48565b6001600160a01b03165f818152600660205260409020546115459060ff16611aa7565b803b15610dc057604051638456cb5960e01b81525f8160048183865af180156115ac57611597575b5033907f3d1ffc1e2e7ab6a209d5171a029e73d0fc0b8370cb5855ec9e2c885dd87695e58380a380f35b6115a49192505f90611975565b5f905f61156d565b6040513d5f823e3d90fd5b34610dc0576020366003190112610dc057600435600454811015610dc0576101786020916118cb565b34610dc0575f366003190112610dc0576115f8611c48565b5f5460ff8160a01c161561163d5760ff60a01b19165f556040513381527f5db9ee0a495bf2e6ff9c91a7834c1ba4fdd244a5e8aa4e537bd38aeae4b073aa90602090a1005b638dfc202b60e01b5f5260045ffd5b34610dc0576020366003190112610dc057611665611891565b61166d611c48565b6003546040513381526001600160a01b03928316928391908316907fafa180149b208bad151b1fed3d622c23b1a949a93c1b134049c02c77ccb0bd3290602090a36001600160a01b03191617600355005b34610dc0576020366003190112610dc05760606101206116dc611891565b926116e681611944565b5f81525f60208201525f60408201525f838201525f60808201525f60a08201525f60c08201528260e082015282610100820152015260018060a01b0316805f52600660205261173b60ff60405f205416611aa7565b5f526007602052602060405f206103606040519161175883611944565b80546001600160a01b039081168452600182015481168585019081526002830154821660408601908152600384015490921660608601908152600484015460808701908152600585015460a08801908152600686015460c08901908152939561187d95899561186995929490939290916117fb60096117d960078901611997565b9760e08b019889526101006117f060088301611997565b9b019a8b5201611997565b6101208d01908152604080518f81529d516001600160a01b039081169f8f019f909f529a518e169a8d019a909a52518c1660608c015251909a1660808a0152985160a0890152975160c0880152965160e08701529551610140610100870152949586956101608701906118a7565b9051858203601f19016101208701526118a7565b9051838203601f19016101408501526118a7565b600435906001600160a01b0382168203610dc057565b805180835260209291819084018484015e5f828201840152601f01601f1916010190565b6004548110156118e35760045f5260205f2001905f90565b634e487b7160e01b5f52603260045260245ffd5b80548210156118e3575f5260205f2001905f90565b90600182811c9216801561193a575b602083101461192657565b634e487b7160e01b5f52602260045260245ffd5b91607f169161191b565b610140810190811067ffffffffffffffff82111761196157604052565b634e487b7160e01b5f52604160045260245ffd5b90601f8019910116810190811067ffffffffffffffff82111761196157604052565b9060405191825f8254926119aa8461190c565b8084529360018116908115611a1557506001146119d1575b506119cf92500383611975565b565b90505f9291925260205f20905f915b8183106119f95750509060206119cf928201015f6119c2565b60209193508060019154838589010152019101909184926119e0565b9050602092506119cf94915060ff191682840152151560051b8201015f6119c2565b60206040818301928281528451809452019201905f5b818110611a5a5750505090565b82516001600160a01b0316845260209384019390920191600101611a4d565b9181601f84011215610dc05782359167ffffffffffffffff8311610dc05760208381860195010111610dc057565b15611aae57565b60405162461bcd60e51b815260206004820152600a602482015269139bdd0818481c1bdbdb60b21b6044820152606490fd5b67ffffffffffffffff81116119615760051b60200190565b91908201809211611b0557565b634e487b7160e01b5f52601160045260245ffd5b91908203918211611b0557565b91906004549081841015611bda57611b5291611b43859283611af8565b90808211611bd2575b50611b19565b611b5b81611ae0565b90611b696040519283611975565b808252601f19611b7882611ae0565b0136602084013781935f5b828110611b905750505050565b611ba2611b9d8284611af8565b6118cb565b9054855160039290921b1c6001600160a01b031691908110156118e35760019160208260051b8701015201611b83565b90505f611b4c565b50509050604051611bec602082611975565b5f81525f36813790565b67ffffffffffffffff811161196157601f01601f191660200190565b929192611c1e82611bf6565b91611c2c6040519384611975565b829481845281830111610dc0578281602093845f960137010152565b5f546001600160a01b03163303611c5b57565b63118cdaa760e01b5f523360045260245ffd5b60ff5f5460a01c16611c7c57565b63d93c066560e01b5f5260045ffd5b3d15611cb5573d90611c9c82611bf6565b91611caa6040519384611975565b82523d5f602084013e565b606090565b6002548015611d3d576003546001600160a01b03169081611e43575050600254803410611dfe576001545f918291829182916001600160a01b03165af1611cff611c8b565b5015611dc3576002545f6040518281527ff228de527fc1b9843baac03b9a04565473a263375950e63435d4138464386f4660203392a3803411611d40575b50565b611d4a9034611b19565b5f80808084335af1611d5a611c8b565b5015611d8e576040519081527f3437b9ea7fa19c6d233dd70cc787a70fab87cee64d8ba4571512cc84402748f960203392a2565b60405162461bcd60e51b815260206004820152600d60248201526c1499599d5b990819985a5b1959609a1b6044820152606490fd5b60405162461bcd60e51b8152602060048201526013602482015272119959481d1c985b9cd9995c8819985a5b1959606a1b6044820152606490fd5b60405162461bcd60e51b815260206004820152601760248201527f496e73756666696369656e74206e6174697665206665650000000000000000006044820152606490fd5b600154611e5d926001600160a01b03909116903390611e99565b60018060a01b03600354166002546040519081527ff228de527fc1b9843baac03b9a04565473a263375950e63435d4138464386f4660203392a3565b6040516323b872dd60e01b5f9081526001600160a01b039384166004529290931660245260449390935260209060648180865af19060015f5114821615611f0a575b6040525f60605215611eea5750565b635274afe760e01b5f9081526001600160a01b0391909116600452602490fd5b906001811516611f2257823b15153d15161690611edb565b503d5f823e3d90fdfea2646970667358221220e863b31715ef112e1f8720a026a7970ec9f01cca31c03683fef1ddbb45ba2ece64736f6c634300081a0033",
  "linkReferences": {},
  "deployedLinkReferences": {}
}