{
  "_format": "hh-sol-artifact-1",
  "contractName": "StakingPool",
  "sourceName": "contracts/StakingPool.sol",
  "abi": [
    {
      "inputs": [],
      "stateMutability": "nonpayable",
      "type": "constructor"
    },
    {
      "inputs": [],
      "name": "EnforcedPause",
      "type": "error"
    },
    {
      "inputs": [],
      "name": "ExpectedPause",
      "type": "error"
    },
    {
      "inputs": [],
      "name": "ReentrancyGuardReentrantCall",
      "type": "error"
    },
    {
      "inputs": [
        {
          "internalType": "address",
          "name": "token",
          "type": "address"
        }
      ],
      "name": "SafeERC20FailedOperation",
      "type": "error"
    },
    {
      "anonymous": false,
      "inputs": [
        {
          "indexed": true,
          "internalType": "address",
          "name": "creator",
          "type": "address"
        },
        {
          "indexed": false,
          "internalType": "uint256",
          "name": "amount",
          "type": "uint256"
        },
        {
          "indexed": false,
          "internalType": "uint256",
          "name": "remainingBalance",
          "type": "uint256"
        }
      ],
      "name": "CreatorWithdraw",
      "type": "event"
    },
    {
      "anonymous": false,
      "inputs": [
        {
          "indexed": true,
          "internalType": "address",
          "name": "user",
          "type": "address"
        },
        {
          "indexed": false,
          "internalType": "uint256",
          "name": "lockEndsAt",
          "type": "uint256"
        }
      ],
      "name": "LockTimerReset",
      "type": "event"
    },
    {
      "anonymous": false,
      "inputs": [
        {
          "indexed": true,
          "internalType": "address",
          "name": "previousOwner",
          "type": "address"
        },
        {
          "indexed": true,
          "internalType": "address",
          "name": "newOwner",
          "type": "address"
        }
      ],
      "name": "OwnershipTransferred",
      "type": "event"
    },
    {
      "anonymous": false,
      "inputs": [
        {
          "indexed": false,
          "internalType": "address",
          "name": "account",
          "type": "address"
        }
      ],
      "name": "Paused",
      "type": "event"
    },
    {
      "anonymous": false,
      "inputs": [
        {
          "indexed": true,
          "internalType": "address",
          "name": "creator",
          "type": "address"
        },
        {
          "indexed": true,
          "internalType": "address",
          "name": "nftCollection",
          "type": "address"
        },
        {
          "indexed": true,
          "internalType": "address",
          "name": "rewardToken",
          "type": "address"
        },
        {
          "indexed": false,
          "internalType": "uint256",
          "name": "totalRewards",
          "type": "uint256"
        },
        {
          "indexed": false,
          "internalType": "uint256",
          "name": "rewardRate",
          "type": "uint256"
        },
        {
          "indexed": false,
          "internalType": "uint256",
          "name": "lockPeriodDays",
          "type": "uint256"
        },
        {
          "indexed": false,
          "internalType": "uint256",
          "name": "startTime",
          "type": "uint256"
        },
        {
          "indexed": false,
          "internalType": "uint256",
          "name": "endTime",
          "type": "uint256"
        }
      ],
      "name": "PoolInitialized",
      "type": "event"
    },
    {
      "anonymous": false,
      "inputs": [
        {
          "indexed": true,
          "internalType": "address",
          "name": "pausedBy",
          "type": "address"
        }
      ],
      "name": "PoolPaused",
      "type": "event"
    },
    {
      "anonymous": false,
      "inputs": [
        {
          "indexed": true,
          "internalType": "address",
          "name": "unpausedBy",
          "type": "address"
        }
      ],
      "name": "PoolUnpaused",
      "type": "event"
    },
    {
      "anonymous": false,
      "inputs": [
        {
          "indexed": true,
          "internalType": "address",
          "name": "user",
          "type": "address"
        },
        {
          "indexed": false,
          "internalType": "uint256",
          "name": "amount",
          "type": "uint256"
        },
        {
          "indexed": false,
          "internalType": "uint256",
          "name": "totalClaimedByUser",
          "type": "uint256"
        }
      ],
      "name": "RewardsClaimed",
      "type": "event"
    },
    {
      "anonymous": false,
      "inputs": [
        {
          "indexed": true,
          "internalType": "address",
          "name": "user",
          "type": "address"
        },
        {
          "indexed": false,
          "internalType": "uint256",
          "name": "amount",
          "type": "uint256"
        }
      ],
      "name": "RewardsForfeited",
      "type": "event"
    },
    {
      "anonymous": false,
      "inputs": [
        {
          "indexed": true,
          "internalType": "address",
          "name": "user",
          "type": "address"
        },
        {
          "indexed": false,
          "internalType": "uint256[]",
          "name": "tokenIds",
          "type": "uint256[]"
        },
        {
          "indexed": false,
          "internalType": "uint256",
          "name": "newStakedBalance",
          "type": "uint256"
        },
        {
          "indexed": false,
          "internalType": "uint256",
          "name": "newTotalStaked",
          "type": "uint256"
        }
      ],
      "name": "Staked",
      "type": "event"
    },
    {
      "anonymous": false,
      "inputs": [
        {
          "indexed": false,
          "internalType": "address",
          "name": "account",
          "type": "address"
        }
      ],
      "name": "Unpaused",
      "type": "event"
    },
    {
      "anonymous": false,
      "inputs": [
        {
          "indexed": true,
          "internalType": "address",
          "name": "user",
          "type": "address"
        },
        {
          "indexed": false,
          "internalType": "uint256[]",
          "name": "tokenIds",
          "type": "uint256[]"
        },
        {
          "indexed": false,
          "internalType": "bool",
          "name": "earlyWithdrawal",
          "type": "bool"
        },
        {
          "indexed": false,
          "internalType": "uint256",
          "name": "newStakedBalance",
          "type": "uint256"
        },
        {
          "indexed": false,
          "internalType": "uint256",
          "name": "newTotalStaked",
          "type": "uint256"
        }
      ],
      "name": "Unstaked",
      "type": "event"
    },
    {
      "inputs": [],
      "name": "MAX_NFTS_PER_USER",
      "outputs": [
        {
          "internalType": "uint256",
          "name": "",
          "type": "uint256"
        }
      ],
      "stateMutability": "view",
      "type": "function"
    },
    {
      "inputs": [],
      "name": "POOL_DURATION",
      "outputs": [
        {
          "internalType": "uint256",
          "name": "",
          "type": "uint256"
        }
      ],
      "stateMutability": "view",
      "type": "function"
    },
    {
      "inputs": [],
      "name": "claimRewards",
      "outputs": [],
      "stateMutability": "nonpayable",
      "type": "function"
    },
    {
      "inputs": [],
      "name": "creatorWithdraw",
      "outputs": [],
      "stateMutability": "nonpayable",
      "type": "function"
    },
    {
      "inputs": [
        {
          "internalType": "address",
          "name": "account",
          "type": "address"
        }
      ],
      "name": "earned",
      "outputs": [
        {
          "internalType": "uint256",
          "name": "",
          "type": "uint256"
        }
      ],
      "stateMutability": "view",
      "type": "function"
    },
    {
      "inputs": [],
      "name": "endTime",
      "outputs": [
        {
          "internalType": "uint256",
          "name": "",
          "type": "uint256"
        }
      ],
      "stateMutability": "view",
      "type": "function"
    },
    {
      "inputs": [],
      "name": "factory",
      "outputs": [
        {
          "internalType": "address",
          "name": "",
          "type": "address"
        }
      ],
      "stateMutability": "view",
      "type": "function"
    },
    {
      "inputs": [],
      "name": "getCurrentAPR",
      "outputs": [
        {
          "internalType": "uint256",
          "name": "",
          "type": "uint256"
        }
      ],
      "stateMutability": "view",
      "type": "function"
    },
    {
      "inputs": [],
      "name": "getPoolInfo",
      "outputs": [
        {
          "internalType": "address",
          "name": "_nftCollection",
          "type": "address"
        },
        {
          "internalType": "address",
          "name": "_rewardToken",
          "type": "address"
        },
        {
          "internalType": "uint256",
          "name": "_totalRewards",
          "type": "uint256"
        },
        {
          "internalType": "uint256",
          "name": "_totalStaked",
          "type": "uint256"
        },
        {
          "internalType": "uint256",
          "name": "_rewardRate",
          "type": "uint256"
        },
        {
          "internalType": "uint256",
          "name": "_startTime",
          "type": "uint256"
        },
        {
          "internalType": "uint256",
          "name": "_endTime",
          "type": "uint256"
        },
        {
          "internalType": "uint256",
          "name": "_remainingRewards",
          "type": "uint256"
        },
        {
          "internalType": "address",
          "name": "_owner",
          "type": "address"
        },
        {
          "internalType": "uint256",
          "name": "_lockPeriod",
          "type": "uint256"
        }
      ],
      "stateMutability": "view",
      "type": "function"
    },
    {
      "inputs": [
        {
          "internalType": "address",
          "name": "user",
          "type": "address"
        }
      ],
      "name": "getStakedTokenIds",
      "outputs": [
        {
          "internalType": "uint256[]",
          "name": "",
          "type": "uint256[]"
        }
      ],
      "stateMutability": "view",
      "type": "function"
    },
    {
      "inputs": [
        {
          "internalType": "address",
          "name": "user",
          "type": "address"
        }
      ],
      "name": "getStakerInfo",
      "outputs": [
        {
          "internalType": "uint256",
          "name": "stakedCount",
          "type": "uint256"
        },
        {
          "internalType": "uint256",
          "name": "pendingRewards",
          "type": "uint256"
        },
        {
          "internalType": "uint256[]",
          "name": "tokenIds",
          "type": "uint256[]"
        },
        {
          "internalType": "bool",
          "name": "isLocked",
          "type": "bool"
        },
        {
          "internalType": "uint256",
          "name": "lockEndsAt",
          "type": "uint256"
        }
      ],
      "stateMutability": "view",
      "type": "function"
    },
    {
      "inputs": [
        {
          "internalType": "address",
          "name": "_creator",
          "type": "address"
        },
        {
          "internalType": "address",
          "name": "_nft",
          "type": "address"
        },
        {
          "internalType": "address",
          "name": "_rewardToken",
          "type": "address"
        },
        {
          "internalType": "uint256",
          "name": "_totalRewards",
          "type": "uint256"
        },
        {
          "internalType": "uint256",
          "name": "_lockPeriodDays",
          "type": "uint256"
        }
      ],
      "name": "initialize",
      "outputs": [],
      "stateMutability": "nonpayable",
      "type": "function"
    },
    {
      "inputs": [],
      "name": "initialized",
      "outputs": [
        {
          "internalType": "bool",
          "name": "",
          "type": "bool"
        }
      ],
      "stateMutability": "view",
      "type": "function"
    },
    {
      "inputs": [],
      "name": "isExpired",
      "outputs": [
        {
          "internalType": "bool",
          "name": "",
          "type": "bool"
        }
      ],
      "stateMutability": "view",
      "type": "function"
    },
    {
      "inputs": [
        {
          "internalType": "address",
          "name": "user",
          "type": "address"
        }
      ],
      "name": "isUserLocked",
      "outputs": [
        {
          "internalType": "bool",
          "name": "",
          "type": "bool"
        }
      ],
      "stateMutability": "view",
      "type": "function"
    },
    {
      "inputs": [],
      "name": "lastTimeRewardApplicable",
      "outputs": [
        {
          "internalType": "uint256",
          "name": "",
          "type": "uint256"
        }
      ],
      "stateMutability": "view",
      "type": "function"
    },
    {
      "inputs": [],
      "name": "lastUpdateTime",
      "outputs": [
        {
          "internalType": "uint256",
          "name": "",
          "type": "uint256"
        }
      ],
      "stateMutability": "view",
      "type": "function"
    },
    {
      "inputs": [],
      "name": "lockPeriod",
      "outputs": [
        {
          "internalType": "uint256",
          "name": "",
          "type": "uint256"
        }
      ],
      "stateMutability": "view",
      "type": "function"
    },
    {
      "inputs": [],
      "name": "nftCollection",
      "outputs": [
        {
          "internalType": "contract IERC721",
          "name": "",
          "type": "address"
        }
      ],
      "stateMutability": "view",
      "type": "function"
    },
    {
      "inputs": [
        {
          "internalType": "address",
          "name": "",
          "type": "address"
        },
        {
          "internalType": "address",
          "name": "",
          "type": "address"
        },
        {
          "internalType": "uint256",
          "name": "",
          "type": "uint256"
        },
        {
          "internalType": "bytes",
          "name": "",
          "type": "bytes"
        }
      ],
      "name": "onERC721Received",
      "outputs": [
        {
          "internalType": "bytes4",
          "name": "",
          "type": "bytes4"
        }
      ],
      "stateMutability": "pure",
      "type": "function"
    },
    {
      "inputs": [],
      "name": "owner",
      "outputs": [
        {
          "internalType": "address",
          "name": "",
          "type": "address"
        }
      ],
      "stateMutability": "view",
      "type": "function"
    },
    {
      "inputs": [],
      "name": "pause",
      "outputs": [],
      "stateMutability": "nonpayable",
      "type": "function"
    },
    {
      "inputs": [],
      "name": "paused",
      "outputs": [
        {
          "internalType": "bool",
          "name": "",
          "type": "bool"
        }
      ],
      "stateMutability": "view",
      "type": "function"
    },
    {
      "inputs": [],
      "name": "renounceOwnership",
      "outputs": [],
      "stateMutability": "nonpayable",
      "type": "function"
    },
    {
      "inputs": [],
      "name": "rewardPerToken",
      "outputs": [
        {
          "internalType": "uint256",
          "name": "",
          "type": "uint256"
        }
      ],
      "stateMutability": "view",
      "type": "function"
    },
    {
      "inputs": [],
      "name": "rewardPerTokenStored",
      "outputs": [
        {
          "internalType": "uint256",
          "name": "",
          "type": "uint256"
        }
      ],
      "stateMutability": "view",
      "type": "function"
    },
    {
      "inputs": [],
      "name": "rewardRate",
      "outputs": [
        {
          "internalType": "uint256",
          "name": "",
          "type": "uint256"
        }
      ],
      "stateMutability": "view",
      "type": "function"
    },
    {
      "inputs": [],
      "name": "rewardToken",
      "outputs": [
        {
          "internalType": "contract IERC20",
          "name": "",
          "type": "address"
        }
      ],
      "stateMutability": "view",
      "type": "function"
    },
    {
      "inputs": [
        {
          "internalType": "address",
          "name": "",
          "type": "address"
        }
      ],
      "name": "rewards",
      "outputs": [
        {
          "internalType": "uint256",
          "name": "",
          "type": "uint256"
        }
      ],
      "stateMutability": "view",
      "type": "function"
    },
    {
      "inputs": [
        {
          "internalType": "uint256[]",
          "name": "tokenIds",
          "type": "uint256[]"
        }
      ],
      "name": "stake",
      "outputs": [],
      "stateMutability": "nonpayable",
      "type": "function"
    },
    {
      "inputs": [
        {
          "internalType": "address",
          "name": "",
          "type": "address"
        }
      ],
      "name": "stakeTimestamp",
      "outputs": [
        {
          "internalType": "uint256",
          "name": "",
          "type": "uint256"
        }
      ],
      "stateMutability": "view",
      "type": "function"
    },
    {
      "inputs": [
        {
          "internalType": "address",
          "name": "",
          "type": "address"
        }
      ],
      "name": "stakedBalance",
      "outputs": [
        {
          "internalType": "uint256",
          "name": "",
          "type": "uint256"
        }
      ],
      "stateMutability": "view",
      "type": "function"
    },
    {
      "inputs": [],
      "name": "startTime",
      "outputs": [
        {
          "internalType": "uint256",
          "name": "",
          "type": "uint256"
        }
      ],
      "stateMutability": "view",
      "type": "function"
    },
    {
      "inputs": [
        {
          "internalType": "uint256",
          "name": "",
          "type": "uint256"
        }
      ],
      "name": "tokenOwner",
      "outputs": [
        {
          "internalType": "address",
          "name": "",
          "type": "address"
        }
      ],
      "stateMutability": "view",
      "type": "function"
    },
    {
      "inputs": [],
      "name": "totalRewards",
      "outputs": [
        {
          "internalType": "uint256",
          "name": "",
          "type": "uint256"
        }
      ],
      "stateMutability": "view",
      "type": "function"
    },
    {
      "inputs": [],
      "name": "totalRewardsClaimed",
      "outputs": [
        {
          "internalType": "uint256",
          "name": "",
          "type": "uint256"
        }
      ],
      "stateMutability": "view",
      "type": "function"
    },
    {
      "inputs": [],
      "name": "totalRewardsEarned",
      "outputs": [
        {
          "internalType": "uint256",
          "name": "",
          "type": "uint256"
        }
      ],
      "stateMutability": "view",
      "type": "function"
    },
    {
      "inputs": [],
      "name": "totalStaked",
      "outputs": [
        {
          "internalType": "uint256",
          "name": "",
          "type": "uint256"
        }
      ],
      "stateMutability": "view",
      "type": "function"
    },
    {
      "inputs": [],
      "name": "totalUnclaimedRewards",
      "outputs": [
        {
          "internalType": "uint256",
          "name": "",
          "type": "uint256"
        }
      ],
      "stateMutability": "view",
      "type": "function"
    },
    {
      "inputs": [
        {
          "internalType": "address",
          "name": "newOwner",
          "type": "address"
        }
      ],
      "name": "transferOwnership",
      "outputs": [],
      "stateMutability": "nonpayable",
      "type": "function"
    },
    {
      "inputs": [],
      "name": "unpause",
      "outputs": [],
      "stateMutability": "nonpayable",
      "type": "function"
    },
    {
      "inputs": [
        {
          "internalType": "uint256[]",
          "name": "tokenIds",
          "type": "uint256[]"
        }
      ],
      "name": "unstake",
      "outputs": [],
      "stateMutability": "nonpayable",
      "type": "function"
    },
    {
      "inputs": [
        {
          "internalType": "address",
          "name": "",
          "type": "address"
        }
      ],
      "name": "userRewardPerTokenPaid",
      "outputs": [
        {
          "internalType": "uint256",
          "name": "",
          "type": "uint256"
        }
      ],
      "stateMutability": "view",
      "type": "function"
    }
  ],
  "bytecode": "0x6080806040523460465760017f9b779b17422d0df92223018b32b4d1fa46e071723d6817e2486d003becc55f005561010061ff00195f5416175f55611cbb908161004b8239f35b5f80fdfe60806040526004361015610011575f80fd5b5f3560e01c80628cc262146117c05780630700037d146117885780630e15561a1461176b5780630fbf0a9314611429578063150b7a02146113b8578063158ef93e146113945780631caaa4871461136257806321ae05c8146113485780632b6838b31461132d5780632f13b60c1461130d57806330d00505146112e05780633197cbb6146112c3578063372500ab1461115a5780633f4ba83a146110c15780633fd8b02f146110a45780635c975abb14611083578063602172671461104b57806360246c8814610f6657806364ec8bdb14610cd55780636588103b14610cad57806369f066a314610c8c5780637025907714610c545780637047bc5214610bca578063715018a614610b6e578063733bdef014610a5757806378e9792514610a3a5780637b0a47ee14610a1d57806380faa57d14610a03578063817b1cd2146109e65780638456cb59146109595780638b876347146109215780638da5cb5b146108f9578063a34b0f76146108dc578063a6b63eb81461076d578063b2c9a5211461074f578063c45a015514610724578063c8f33c9114610707578063cd3daf9d146106e5578063df136d65146106c8578063e449f341146102eb578063f15576a6146102ce578063f2fde38b1461021d5763f7c618c1146101f1575f80fd5b34610219575f366003190112610219576003546040516001600160a01b039091168152602090f35b5f80fd5b34610219576020366003190112610219576102366117e3565b6001546001600160a01b0381169161024f338414611ae1565b6001600160a01b03169182156102955782907f8be0079c531659141344cd1fd0a4f28419497f9722a3daafe3b4186f6b6457e05f80a36001600160a01b03191617600155005b60405162461bcd60e51b815260206004820152601160248201527024b73b30b634b2103732bb9037bbb732b960791b6044820152606490fd5b34610219575f366003190112610219576020600a54604051908152f35b34610219576102f93661180f565b610301611b92565b610309611b2b565b610315600c5482611896565b801515806106bd575b610692575b50600c5561032f611b1a565b600d5533610667575b610343811515611941565b61034c33611a4f565b9081610607575b5f5b8181106104a95750335f52601060205260405f20610374828254611896565b905561038281600954611896565b600955335f52601060205260405f205415610496575b5f5b81811061041657507f4333297bfe8e805e03ac2a217ec563f4a89d108ae5f64a918f284238239b03be9192335f52601060205260405f20546103eb60095492604051946080865260808601916119d4565b9415156020840152604083015260608201528033930390a260015f80516020611c6683398151915255005b6002546001600160a01b03169061042e818487611979565b3591803b1561021957604051632142170760e11b815230600482015233602482015260448101939093525f908390606490829084905af191821561048b5760019261047b575b500161039a565b5f6104859161199d565b85610474565b6040513d5f823e3d90fd5b335f5260146020525f6040812055610398565b6104b4818386611979565b3590815f5260126020523360018060a01b0360405f205416036105d157815f52601260205260405f206bffffffffffffffffffffffff60a01b8154169055335f52601160205260405f2091805f52601360205260405f205483545f1981019081116105bd57808203610573575b5050825492831561055f576001935f19019061053d82826119bf565b8154905f199060031b1b19169055555f5260136020525f604081205501610355565b634e487b7160e01b5f52603160045260245ffd5b61057d90856119bf565b90549060031b1c6105aa8161059284886119bf565b90919082549060031b91821b915f19901b1916179055565b5f52601360205260405f20558680610521565b634e487b7160e01b5f52601160045260245ffd5b60405162461bcd60e51b815260206004820152600e60248201526d2737ba103cb7bab9103a37b5b2b760911b6044820152606490fd5b335f908152600f60205260408120805491905580610626575b50610353565b61063281600a54611896565b600a556040519081527fcea3ca38574abb40b4e3cbf4c4709d6a5caac85b8d74b99c7be9a31c79fe72e660203392a283610620565b610670336118e1565b335f52600f60205260405f2055600c54335f52600e60205260405f2055610338565b670de0b6b3a76400006106ab6106b492600954906118a3565b04600a546118d4565b600a5583610323565b50600954151561031e565b34610219575f366003190112610219576020600c54604051908152f35b34610219575f3660031901126102195760206106ff611b2b565b604051908152f35b34610219575f366003190112610219576020600d54604051908152f35b34610219575f366003190112610219575f5460405160109190911c6001600160a01b03168152602090f35b34610219575f3660031901126102195760206040516301e133808152f35b346102195760a0366003190112610219576107866117e3565b61078e6117f9565b6044356001600160a01b0381169291908390036102195760643591608435905f5460ff8160081c166108a157610100600160b01b0319163360101b62010000600160b01b031617610100175f55600180546001600160a01b03199081166001600160a01b0393841690811790925560028054821695909316948517909255600380549092168617909155600484905591926201518082810290831584830490911417156105bd576008556301e1338081049081600555426006556301e1338042018042116105bd577f3c939fb35e184f252bc43be532ecfc18daeafd9f1bd0a72288a083c2d231b6d69360a0938260075542600d55604051938452602084015260408301524260608301526080820152a4005b60405162461bcd60e51b8152602060048201526013602482015272105b1c9958591e481a5b9a5d1a585b1a5e9959606a1b6044820152606490fd5b34610219575f366003190112610219576020600b54604051908152f35b34610219575f366003190112610219576001546040516001600160a01b039091168152602090f35b34610219576020366003190112610219576001600160a01b036109426117e3565b165f52600e602052602060405f2054604051908152f35b34610219575f366003190112610219575f5460019061098633601083901c6001600160a01b031614611aa6565b61098e611bca565b60ff1916175f557f62e78cea01bee320cd4e420270b5ea74000d11b0c9f74754ebdbfc544b05a2586020604051338152a1337fd971f597c759bbab7e07dc9b98eed49a71a525608003fc6c2fba4248359847035f80a2005b34610219575f366003190112610219576020600954604051908152f35b34610219575f3660031901126102195760206106ff611b1a565b34610219575f366003190112610219576020600554604051908152f35b34610219575f366003190112610219576020600654604051908152f35b3461021957602036600319011261021957610a706117e3565b6001600160a01b0381165f8181526010602052604081205491928190610a95906118e1565b93805f52601160205260405f2090604051808360208295549384815201905f5260205f20925f5b818110610b55575050610ad19250038361199d565b6008549081151580610b40575b610b18575b5050610b07906040519586958652602086015260a0604086015260a0850190611863565b911515606084015260808301520390f35b90919350610b3292505f52601460205260405f20546118d4565b610b07814210929086610ae3565b50805f52601460205260405f20541515610ade565b8454835260019485019487945060209093019201610abc565b34610219575f366003190112610219576001545f6001600160a01b038216610b97338214611ae1565b7f8be0079c531659141344cd1fd0a4f28419497f9722a3daafe3b4186f6b6457e08280a36001600160a01b031916600155005b34610219576020366003190112610219576001600160a01b03610beb6117e3565b165f52601160205260405f206040519081602082549182815201915f5260205f20905f5b818110610c3e57610c3a85610c268187038261199d565b604051918291602083526020830190611863565b0390f35b8254845260209093019260019283019201610c0f565b34610219576020366003190112610219576001600160a01b03610c756117e3565b165f526014602052602060405f2054604051908152f35b34610219575f3660031901126102195760206106ff600a54600b5490611896565b34610219575f366003190112610219576002546040516001600160a01b039091168152602090f35b34610219575f36600319011261021957610cfa60018060a01b03600154163314611ae1565b610d02611b92565b610d0a611b2b565b610d16600c5482611896565b80151580610f5b575b610f39575b50600c55610d30611b1a565b600d556007544210610f01576003546040516370a0823160e01b81523060048201526001600160a01b0390911690602081602481855afa90811561048b575f91610ecf575b50610d85600a54600b5490611896565b9081811115610e8a57610db191610d9b91611896565b600154909283916001600160a01b031690611be4565b6001546003546040516370a0823160e01b81523060048201526001600160a01b039283169392909160209183916024918391165afa90811561048b575f91610e38575b507f2c8c79175c9c976dfa554bdecda0dedc81f35591bcaa1b9bb00652e1d60825029160409182519182526020820152a260015f80516020611c6683398151915255005b90506020813d602011610e82575b81610e536020938361199d565b8101031261021957517f2c8c79175c9c976dfa554bdecda0dedc81f35591bcaa1b9bb00652e1d6082502610df4565b3d9150610e46565b60405162461bcd60e51b815260206004820152601760248201527f4e6f20776974686472617761626c6520726577617264730000000000000000006044820152606490fd5b90506020813d602011610ef9575b81610eea6020938361199d565b81010312610219575182610d75565b3d9150610edd565b60405162461bcd60e51b815260206004820152601060248201526f141bdbdb081b9bdd08195e1c1a5c995960821b6044820152606490fd5b670de0b6b3a76400006106ab610f5292600954906118a3565b600a5581610d24565b506009541515610d1f565b34610219575f36600319011261021957600254600354600480546009546005546006546007546040516370a0823160e01b8152309681019690965294966001600160a01b0390811696169491602088602481895afa93841561048b575f94611015575b610140985060018060a01b03600154169560085497604051998a5260208a015260408901526060880152608087015260a086015260c085015260e0840152610100830152610120820152f35b93506020883d602011611043575b816110306020938361199d565b8101031261021957610140975193610fc9565b3d9150611023565b34610219576020366003190112610219576001600160a01b0361106c6117e3565b165f526010602052602060405f2054604051908152f35b34610219575f36600319011261021957602060ff5f54166040519015158152f35b34610219575f366003190112610219576020600854604051908152f35b34610219575f366003190112610219575f546110eb33601083901c6001600160a01b031614611aa6565b60ff81161561114b5760ff19165f557f5db9ee0a495bf2e6ff9c91a7834c1ba4fdd244a5e8aa4e537bd38aeae4b073aa6020604051338152a1337f7ad28e69e140b6a700e01c343225b0dc7078e68583d56283e7917e07f81111235f80a2005b638dfc202b60e01b5f5260045ffd5b34610219575f36600319011261021957611172611b92565b61117a611b2b565b611186600c5482611896565b801515806112b8575b611296575b50600c556111a0611b1a565b600d553361126b575b335f52600f60205260405f2054801561123957335f52600f6020525f60408120556111d681600b546118d4565b600b556003546111f290829033906001600160a01b0316611be4565b600b5460405191825260208201527fdacbdde355ba930696a362ea6738feb9f8bd52dfb3d81947558fd3217e23e32560403392a260015f80516020611c6683398151915255005b60405162461bcd60e51b815260206004820152600a6024820152694e6f207265776172647360b01b6044820152606490fd5b611274336118e1565b335f52600f60205260405f2055600c54335f52600e60205260405f20556111a9565b670de0b6b3a76400006106ab6112af92600954906118a3565b600a5581611194565b50600954151561118f565b34610219575f366003190112610219576020600754604051908152f35b346102195760203660031901126102195760206113036112fe6117e3565b611a4f565b6040519015158152f35b34610219575f366003190112610219576020600754421015604051908152f35b34610219575f36600319011261021957602060405160648152f35b34610219575f3660031901126102195760206106ff6119f8565b34610219576020366003190112610219576004355f526012602052602060018060a01b0360405f205416604051908152f35b34610219575f36600319011261021957602060ff5f5460081c166040519015158152f35b34610219576080366003190112610219576113d16117e3565b506113da6117f9565b5060643567ffffffffffffffff8111610219573660238201121561021957806004013567ffffffffffffffff8111610219573691016024011161021957604051630a85bd0160e11b8152602090f35b34610219576114373661180f565b61143f611b92565b611447611bca565b61144f611b2b565b61145b600c5482611896565b80151580611760575b61173e575b50600c55611475611b1a565b600d5533611713575b6007544210156116df57611493811515611941565b335f52601060205260646114ab8260405f20546118d4565b1161169a575f5b8181106115a257507f164f19a71ac2f5f47fa96e57a78619631f78282de1c5574968a7e75ede1e010490335f52601060205260405f206114f38282546118d4565b9055611501816009546118d4565b600955335f5260146020524260405f2055335f52601060205260405f20549261153960095491604051936060855260608501916119d4565b93602083015260408201528033930390a260085480611566575b60015f80516020611c6683398151915255005b61157090426118d4565b6040519081527f8310c3caaaf6b30e34506e6a7862a084a10906801bb3f9d25a9de7441eb99b6360203392a280611553565b6115ad818385611979565b600254903591906001600160a01b0316803b1561021957604051632142170760e11b815233600482015230602482015260448101849052905f908290606490829084905af1801561048b5761168a575b50815f52601260205260405f20336bffffffffffffffffffffffff60a01b825416179055335f52601160205260405f2054825f52601360205260405f2055335f52601160205260405f209182549068010000000000000000821015611676576105928260019586611670950181556119bf565b016114b2565b634e487b7160e01b5f52604160045260245ffd5b5f6116949161199d565b846115fd565b60405162461bcd60e51b815260206004820152601960248201527f45786365656473206d6178204e465473207065722075736572000000000000006044820152606490fd5b60405162461bcd60e51b815260206004820152600c60248201526b141bdbdb08195e1c1a5c995960a21b6044820152606490fd5b61171c336118e1565b335f52600f60205260405f2055600c54335f52600e60205260405f205561147e565b670de0b6b3a76400006106ab61175792600954906118a3565b600a5583611469565b506009541515611464565b34610219575f366003190112610219576020600454604051908152f35b34610219576020366003190112610219576001600160a01b036117a96117e3565b165f52600f602052602060405f2054604051908152f35b346102195760203660031901126102195760206106ff6117de6117e3565b6118e1565b600435906001600160a01b038216820361021957565b602435906001600160a01b038216820361021957565b9060206003198301126102195760043567ffffffffffffffff811161021957826023820112156102195780600401359267ffffffffffffffff84116102195760248460051b83010111610219576024019190565b90602080835192838152019201905f5b8181106118805750505090565b8251845260209384019390920191600101611873565b919082039182116105bd57565b818102929181159184041417156105bd57565b81156118c0570490565b634e487b7160e01b5f52601260045260245ffd5b919082018092116105bd57565b61193e9060018060a01b0316805f526010602052670de0b6b3a764000061192a60405f2054611924611911611b2b565b855f52600e60205260405f205490611896565b906118a3565b04905f52600f60205260405f2054906118d4565b90565b1561194857565b60405162461bcd60e51b81526020600482015260096024820152684e6f20746f6b656e7360b81b6044820152606490fd5b91908110156119895760051b0190565b634e487b7160e01b5f52603260045260245ffd5b90601f8019910116810190811067ffffffffffffffff82111761167657604052565b8054821015611989575f5260205f2001905f90565b81835290916001600160fb1b0383116102195760209260051b809284830137010190565b6009548015611a4a57600554906301e133808202918083046301e1338014811517156105bd576a1a1601fc4ea7109e0000000291808304670de0b6b3a764000014901517156105bd5761193e916118b6565b505f90565b60085480158015611a87575b611a8157611a7c9160018060a01b03165f52601460205260405f20546118d4565b421090565b50505f90565b506001600160a01b0382165f9081526014602052604090205415611a5b565b15611aad57565b60405162461bcd60e51b815260206004820152600c60248201526b4f6e6c7920666163746f727960a01b6044820152606490fd5b15611ae857565b60405162461bcd60e51b815260206004820152600a60248201526927b7363c9037bbb732b960b11b6044820152606490fd5b6007548042105f1461193e57504290565b6009548015611b8b57600c54611b57611b4e611b45611b1a565b600d5490611896565b600554906118a3565b670de0b6b3a7640000810290808204670de0b6b3a764000014901517156105bd5761193e92611b85916118b6565b906118d4565b50600c5490565b60025f80516020611c668339815191525414611bbb5760025f80516020611c6683398151915255565b633ee5aeb560e01b5f5260045ffd5b60ff5f5416611bd557565b63d93c066560e01b5f5260045ffd5b916040519163a9059cbb60e01b5f5260018060a01b031660045260245260205f60448180865af19060015f5114821615611c44575b60405215611c245750565b635274afe760e01b5f9081526001600160a01b0391909116600452602490fd5b906001811516611c5c57823b15153d15161690611c19565b503d5f823e3d90fdfe9b779b17422d0df92223018b32b4d1fa46e071723d6817e2486d003becc55f00a26469706673582212206c4204291932da6e66bd99dd917d8b7fe95f07d07b800503ec8c572433fe05aa64736f6c634300081a0033",
  "linkReferences": {},
  "deployedLinkReferences": {}
}